{
    "contractName": "Cryptos",
    "abi": [
        {
            "inputs": [],
            "stateMutability": "nonpayable",
            "type": "constructor"
        },
        {
            "anonymous": false,
            "inputs": [
                {
                    "indexed": true,
                    "internalType": "address",
                    "name": "tokenOwner",
                    "type": "address"
                },
                {
                    "indexed": true,
                    "internalType": "address",
                    "name": "spender",
                    "type": "address"
                },
                {
                    "indexed": false,
                    "internalType": "uint256",
                    "name": "tokens",
                    "type": "uint256"
                }
            ],
            "name": "Approval",
            "type": "event"
        },
        {
            "anonymous": false,
            "inputs": [
                {
                    "indexed": true,
                    "internalType": "address",
                    "name": "from",
                    "type": "address"
                },
                {
                    "indexed": true,
                    "internalType": "address",
                    "name": "to",
                    "type": "address"
                },
                {
                    "indexed": false,
                    "internalType": "uint256",
                    "name": "tokens",
                    "type": "uint256"
                }
            ],
            "name": "Transfer",
            "type": "event"
        },
        {
            "inputs": [
                {
                    "internalType": "address",
                    "name": "tokenOwner",
                    "type": "address"
                },
                {
                    "internalType": "address",
                    "name": "spender",
                    "type": "address"
                }
            ],
            "name": "allowance",
            "outputs": [
                {
                    "internalType": "uint256",
                    "name": "",
                    "type": "uint256"
                }
            ],
            "stateMutability": "view",
            "type": "function"
        },
        {
            "inputs": [
                {
                    "internalType": "address",
                    "name": "spender",
                    "type": "address"
                },
                {
                    "internalType": "uint256",
                    "name": "tokens",
                    "type": "uint256"
                }
            ],
            "name": "approve",
            "outputs": [
                {
                    "internalType": "bool",
                    "name": "success",
                    "type": "bool"
                }
            ],
            "stateMutability": "nonpayable",
            "type": "function"
        },
        {
            "inputs": [
                {
                    "internalType": "address",
                    "name": "tokenOwner",
                    "type": "address"
                }
            ],
            "name": "balanceOf",
            "outputs": [
                {
                    "internalType": "uint256",
                    "name": "balance",
                    "type": "uint256"
                }
            ],
            "stateMutability": "view",
            "type": "function"
        },
        {
            "inputs": [
                {
                    "internalType": "address",
                    "name": "",
                    "type": "address"
                }
            ],
            "name": "balances",
            "outputs": [
                {
                    "internalType": "uint256",
                    "name": "",
                    "type": "uint256"
                }
            ],
            "stateMutability": "view",
            "type": "function"
        },
        {
            "inputs": [],
            "name": "decimals",
            "outputs": [
                {
                    "internalType": "uint256",
                    "name": "",
                    "type": "uint256"
                }
            ],
            "stateMutability": "view",
            "type": "function"
        },
        {
            "inputs": [],
            "name": "founder",
            "outputs": [
                {
                    "internalType": "address",
                    "name": "",
                    "type": "address"
                }
            ],
            "stateMutability": "view",
            "type": "function"
        },
        {
            "inputs": [],
            "name": "name",
            "outputs": [
                {
                    "internalType": "string",
                    "name": "",
                    "type": "string"
                }
            ],
            "stateMutability": "view",
            "type": "function"
        },
        {
            "inputs": [],
            "name": "symbol",
            "outputs": [
                {
                    "internalType": "string",
                    "name": "",
                    "type": "string"
                }
            ],
            "stateMutability": "view",
            "type": "function"
        },
        {
            "inputs": [],
            "name": "totalSupply",
            "outputs": [
                {
                    "internalType": "uint256",
                    "name": "",
                    "type": "uint256"
                }
            ],
            "stateMutability": "view",
            "type": "function"
        },
        {
            "inputs": [
                {
                    "internalType": "address",
                    "name": "to",
                    "type": "address"
                },
                {
                    "internalType": "uint256",
                    "name": "tokens",
                    "type": "uint256"
                }
            ],
            "name": "transfer",
            "outputs": [
                {
                    "internalType": "bool",
                    "name": "success",
                    "type": "bool"
                }
            ],
            "stateMutability": "nonpayable",
            "type": "function"
        },
        {
            "inputs": [
                {
                    "internalType": "address",
                    "name": "from",
                    "type": "address"
                },
                {
                    "internalType": "address",
                    "name": "to",
                    "type": "address"
                },
                {
                    "internalType": "uint256",
                    "name": "tokens",
                    "type": "uint256"
                }
            ],
            "name": "transferFrom",
            "outputs": [
                {
                    "internalType": "bool",
                    "name": "success",
                    "type": "bool"
                }
            ],
            "stateMutability": "nonpayable",
            "type": "function"
        }
    ],
    "bytecode": "60c0604052600760808190526643727970746f7360c81b60a09081526100289160009190610099565b506040805180820190915260048082526310d4941560e21b602090920191825261005491600191610099565b50601260025534801561006657600080fd5b50620f42406003819055600480546001600160a01b0319163390811790915560009081526005602052604090205561016c565b8280546100a590610132565b90600052602060002090601f0160209004810192826100c7576000855561010d565b82601f106100e057805160ff191683800117855561010d565b8280016001018555821561010d579182015b8281111561010d5782518255916020019190600101906100f2565b5061011992915061011d565b5090565b5b80821115610119576000815560010161011e565b600181811c9082168061014657607f821691505b60208210810361016657634e487b7160e01b600052602260045260246000fd5b50919050565b6106e68061017b6000396000f3fe608060405234801561001057600080fd5b50600436106100a95760003560e01c8063313ce56711610071578063313ce567146101395780634d853ee51461014257806370a082311461016d57806395d89b4114610196578063a9059cbb1461019e578063dd62ed3e146101b157600080fd5b806306fdde03146100ae578063095ea7b3146100cc57806318160ddd146100ef57806323b872dd1461010657806327e235e314610119575b600080fd5b6100b66101ea565b6040516100c39190610505565b60405180910390f35b6100df6100da366004610576565b610278565b60405190151581526020016100c3565b6100f860035481565b6040519081526020016100c3565b6100df6101143660046105a0565b610306565b6100f86101273660046105dc565b60056020526000908152604090205481565b6100f860025481565b600454610155906001600160a01b031681565b6040516001600160a01b0390911681526020016100c3565b6100f861017b3660046105dc565b6001600160a01b031660009081526005602052604090205490565b6100b661044e565b6100df6101ac366004610576565b61045b565b6100f86101bf3660046105fe565b6001600160a01b03918216600090815260066020908152604080832093909416825291909152205490565b600080546101f790610631565b80601f016020809104026020016040519081016040528092919081815260200182805461022390610631565b80156102705780601f1061024557610100808354040283529160200191610270565b820191906000526020600020905b81548152906001019060200180831161025357829003601f168201915b505050505081565b3360009081526005602052604081205482111561029457600080fd5b600082116102a157600080fd5b3360008181526006602090815260408083206001600160a01b03881680855290835292819020869055518581529192917f8c5be1e5ebec7d5bd14f71427d1e84f3dd0314c0f7b2291e5b200ac8c7c3b92591015b60405180910390a350600192915050565b6001600160a01b03808416600090815260066020908152604080832093861683529290529081205482111561033a57600080fd5b6001600160a01b03841660009081526005602052604090205482111561035f57600080fd5b6001600160a01b03841660009081526005602052604081208054849290610387908490610681565b90915550506001600160a01b038316600090815260056020526040812080548492906103b4908490610698565b90915550506001600160a01b038085166000908152600660209081526040808320938716835292905290812080548492906103f0908490610681565b92505081905550826001600160a01b0316846001600160a01b03167fddf252ad1be2c89b69c2b068fc378daa952ba7f163c4a11628f55a4df523b3ef8460405161043c91815260200190565b60405180910390a35060019392505050565b600180546101f790610631565b3360009081526005602052604081205482111561047757600080fd5b6001600160a01b0383166000908152600560205260408120805484929061049f908490610698565b909155505033600090815260056020526040812080548492906104c3908490610681565b90915550506040518281526001600160a01b0384169033907fddf252ad1be2c89b69c2b068fc378daa952ba7f163c4a11628f55a4df523b3ef906020016102f5565b600060208083528351808285015260005b8181101561053257858101830151858201604001528201610516565b81811115610544576000604083870101525b50601f01601f1916929092016040019392505050565b80356001600160a01b038116811461057157600080fd5b919050565b6000806040838503121561058957600080fd5b6105928361055a565b946020939093013593505050565b6000806000606084860312156105b557600080fd5b6105be8461055a565b92506105cc6020850161055a565b9150604084013590509250925092565b6000602082840312156105ee57600080fd5b6105f78261055a565b9392505050565b6000806040838503121561061157600080fd5b61061a8361055a565b91506106286020840161055a565b90509250929050565b600181811c9082168061064557607f821691505b60208210810361066557634e487b7160e01b600052602260045260246000fd5b50919050565b634e487b7160e01b600052601160045260246000fd5b6000828210156106935761069361066b565b500390565b600082198211156106ab576106ab61066b565b50019056fea26469706673582212204606d8de5e595e7f86b812eb21819a9b586bd71ff0ef9987699f91bd07b685d464736f6c634300080d0033",
    "sourcePath": "c:/Users/bartu/Desktop/ERC20-Standart-Token-/erc20.sol",
    "compiler": {
        "name": "solc",
        "version": "0.8.13+commit.abaa5c0e"
    },
    "functionHashes": {
        "allowance(address,address)": "dd62ed3e",
        "approve(address,uint256)": "095ea7b3",
        "balanceOf(address)": "70a08231",
        "balances(address)": "27e235e3",
        "decimals()": "313ce567",
        "founder()": "4d853ee5",
        "name()": "06fdde03",
        "symbol()": "95d89b41",
        "totalSupply()": "18160ddd",
        "transfer(address,uint256)": "a9059cbb",
        "transferFrom(address,address,uint256)": "23b872dd"
    },
    "gasEstimates": {
        "creation": {
            "codeDepositCost": "353200",
            "executionCost": "infinite",
            "totalCost": "infinite"
        },
        "external": {
            "allowance(address,address)": "infinite",
            "approve(address,uint256)": "26722",
            "balanceOf(address)": "2581",
            "balances(address)": "2608",
            "decimals()": "2295",
            "founder()": "2359",
            "name()": "infinite",
            "symbol()": "infinite",
            "totalSupply()": "2340",
            "transfer(address,uint256)": "53273",
            "transferFrom(address,address,uint256)": "infinite"
        }
    }
}