{
    "contractName": "CryptoICO",
    "abi": [
        {
            "inputs": [
                {
                    "internalType": "address payable",
                    "name": "_deposit",
                    "type": "address"
                }
            ],
            "stateMutability": "nonpayable",
            "type": "constructor"
        },
        {
            "anonymous": false,
            "inputs": [
                {
                    "indexed": true,
                    "internalType": "address",
                    "name": "tokenOwner",
                    "type": "address"
                },
                {
                    "indexed": true,
                    "internalType": "address",
                    "name": "spender",
                    "type": "address"
                },
                {
                    "indexed": false,
                    "internalType": "uint256",
                    "name": "tokens",
                    "type": "uint256"
                }
            ],
            "name": "Approval",
            "type": "event"
        },
        {
            "anonymous": false,
            "inputs": [
                {
                    "indexed": false,
                    "internalType": "address",
                    "name": "investor",
                    "type": "address"
                },
                {
                    "indexed": false,
                    "internalType": "uint256",
                    "name": "value",
                    "type": "uint256"
                },
                {
                    "indexed": false,
                    "internalType": "uint256",
                    "name": "tokens",
                    "type": "uint256"
                }
            ],
            "name": "Invest",
            "type": "event"
        },
        {
            "anonymous": false,
            "inputs": [
                {
                    "indexed": true,
                    "internalType": "address",
                    "name": "from",
                    "type": "address"
                },
                {
                    "indexed": true,
                    "internalType": "address",
                    "name": "to",
                    "type": "address"
                },
                {
                    "indexed": false,
                    "internalType": "uint256",
                    "name": "tokens",
                    "type": "uint256"
                }
            ],
            "name": "Transfer",
            "type": "event"
        },
        {
            "inputs": [],
            "name": "admin",
            "outputs": [
                {
                    "internalType": "address",
                    "name": "",
                    "type": "address"
                }
            ],
            "stateMutability": "view",
            "type": "function"
        },
        {
            "inputs": [
                {
                    "internalType": "address",
                    "name": "tokenOwner",
                    "type": "address"
                },
                {
                    "internalType": "address",
                    "name": "spender",
                    "type": "address"
                }
            ],
            "name": "allowance",
            "outputs": [
                {
                    "internalType": "uint256",
                    "name": "",
                    "type": "uint256"
                }
            ],
            "stateMutability": "view",
            "type": "function"
        },
        {
            "inputs": [
                {
                    "internalType": "address",
                    "name": "spender",
                    "type": "address"
                },
                {
                    "internalType": "uint256",
                    "name": "tokens",
                    "type": "uint256"
                }
            ],
            "name": "approve",
            "outputs": [
                {
                    "internalType": "bool",
                    "name": "success",
                    "type": "bool"
                }
            ],
            "stateMutability": "nonpayable",
            "type": "function"
        },
        {
            "inputs": [
                {
                    "internalType": "address",
                    "name": "tokenOwner",
                    "type": "address"
                }
            ],
            "name": "balanceOf",
            "outputs": [
                {
                    "internalType": "uint256",
                    "name": "balance",
                    "type": "uint256"
                }
            ],
            "stateMutability": "view",
            "type": "function"
        },
        {
            "inputs": [
                {
                    "internalType": "address",
                    "name": "",
                    "type": "address"
                }
            ],
            "name": "balances",
            "outputs": [
                {
                    "internalType": "uint256",
                    "name": "",
                    "type": "uint256"
                }
            ],
            "stateMutability": "view",
            "type": "function"
        },
        {
            "inputs": [
                {
                    "internalType": "address payable",
                    "name": "newDeposit",
                    "type": "address"
                }
            ],
            "name": "changeDepositAddress",
            "outputs": [],
            "stateMutability": "nonpayable",
            "type": "function"
        },
        {
            "inputs": [],
            "name": "decimals",
            "outputs": [
                {
                    "internalType": "uint256",
                    "name": "",
                    "type": "uint256"
                }
            ],
            "stateMutability": "view",
            "type": "function"
        },
        {
            "inputs": [],
            "name": "deposit",
            "outputs": [
                {
                    "internalType": "address payable",
                    "name": "",
                    "type": "address"
                }
            ],
            "stateMutability": "view",
            "type": "function"
        },
        {
            "inputs": [],
            "name": "founder",
            "outputs": [
                {
                    "internalType": "address",
                    "name": "",
                    "type": "address"
                }
            ],
            "stateMutability": "view",
            "type": "function"
        },
        {
            "inputs": [],
            "name": "getCurrentState",
            "outputs": [
                {
                    "internalType": "enum CryptoICO.State",
                    "name": "",
                    "type": "uint8"
                }
            ],
            "stateMutability": "view",
            "type": "function"
        },
        {
            "inputs": [],
            "name": "halt",
            "outputs": [],
            "stateMutability": "nonpayable",
            "type": "function"
        },
        {
            "inputs": [],
            "name": "hardCap",
            "outputs": [
                {
                    "internalType": "uint256",
                    "name": "",
                    "type": "uint256"
                }
            ],
            "stateMutability": "view",
            "type": "function"
        },
        {
            "inputs": [],
            "name": "icoState",
            "outputs": [
                {
                    "internalType": "enum CryptoICO.State",
                    "name": "",
                    "type": "uint8"
                }
            ],
            "stateMutability": "view",
            "type": "function"
        },
        {
            "inputs": [],
            "name": "invest",
            "outputs": [
                {
                    "internalType": "bool",
                    "name": "",
                    "type": "bool"
                }
            ],
            "stateMutability": "payable",
            "type": "function"
        },
        {
            "inputs": [],
            "name": "maxInvest",
            "outputs": [
                {
                    "internalType": "uint256",
                    "name": "",
                    "type": "uint256"
                }
            ],
            "stateMutability": "view",
            "type": "function"
        },
        {
            "inputs": [],
            "name": "minInvest",
            "outputs": [
                {
                    "internalType": "uint256",
                    "name": "",
                    "type": "uint256"
                }
            ],
            "stateMutability": "view",
            "type": "function"
        },
        {
            "inputs": [],
            "name": "name",
            "outputs": [
                {
                    "internalType": "string",
                    "name": "",
                    "type": "string"
                }
            ],
            "stateMutability": "view",
            "type": "function"
        },
        {
            "inputs": [],
            "name": "raisedAmount",
            "outputs": [
                {
                    "internalType": "uint256",
                    "name": "",
                    "type": "uint256"
                }
            ],
            "stateMutability": "view",
            "type": "function"
        },
        {
            "inputs": [],
            "name": "resume",
            "outputs": [],
            "stateMutability": "nonpayable",
            "type": "function"
        },
        {
            "inputs": [],
            "name": "saleEnd",
            "outputs": [
                {
                    "internalType": "uint256",
                    "name": "",
                    "type": "uint256"
                }
            ],
            "stateMutability": "view",
            "type": "function"
        },
        {
            "inputs": [],
            "name": "saleStart",
            "outputs": [
                {
                    "internalType": "uint256",
                    "name": "",
                    "type": "uint256"
                }
            ],
            "stateMutability": "view",
            "type": "function"
        },
        {
            "inputs": [],
            "name": "symbol",
            "outputs": [
                {
                    "internalType": "string",
                    "name": "",
                    "type": "string"
                }
            ],
            "stateMutability": "view",
            "type": "function"
        },
        {
            "inputs": [],
            "name": "tokenTradeStart",
            "outputs": [
                {
                    "internalType": "uint256",
                    "name": "",
                    "type": "uint256"
                }
            ],
            "stateMutability": "view",
            "type": "function"
        },
        {
            "inputs": [],
            "name": "totalSupply",
            "outputs": [
                {
                    "internalType": "uint256",
                    "name": "",
                    "type": "uint256"
                }
            ],
            "stateMutability": "view",
            "type": "function"
        },
        {
            "inputs": [
                {
                    "internalType": "address",
                    "name": "to",
                    "type": "address"
                },
                {
                    "internalType": "uint256",
                    "name": "tokens",
                    "type": "uint256"
                }
            ],
            "name": "transfer",
            "outputs": [
                {
                    "internalType": "bool",
                    "name": "success",
                    "type": "bool"
                }
            ],
            "stateMutability": "nonpayable",
            "type": "function"
        },
        {
            "inputs": [
                {
                    "internalType": "address",
                    "name": "from",
                    "type": "address"
                },
                {
                    "internalType": "address",
                    "name": "to",
                    "type": "address"
                },
                {
                    "internalType": "uint256",
                    "name": "tokens",
                    "type": "uint256"
                }
            ],
            "name": "transferFrom",
            "outputs": [
                {
                    "internalType": "bool",
                    "name": "success",
                    "type": "bool"
                }
            ],
            "stateMutability": "nonpayable",
            "type": "function"
        }
    ],
    "bytecode": "60c0604052600760808190526643727970746f7360c81b60a09081526200002a91600091906200015c565b506040805180820190915260048082526310d4941560e21b602090920191825262000058916001916200015c565b50601260025566038d7ea4c68000600955681043561a8829300000600a556200008442610e1062000202565b600c55620000964262093a8062000202565b600d819055620000aa9062093a8062000202565b600e55674563918244f40000600f5567016345785d8a0000601055348015620000d257600080fd5b5060405162000f3238038062000f32833981016040819052620000f59162000229565b620f4240600381905560048054336001600160a01b031991821681179092556000828152600560205260408120939093556008805482166001600160a01b0386161790556007805490911690911790556011805460ff191660018302179055505062000297565b8280546200016a906200025b565b90600052602060002090601f0160209004810192826200018e5760008555620001d9565b82601f10620001a957805160ff1916838001178555620001d9565b82800160010185558215620001d9579182015b82811115620001d9578251825591602001919060010190620001bc565b50620001e7929150620001eb565b5090565b5b80821115620001e75760008155600101620001ec565b600082198211156200022457634e487b7160e01b600052601160045260246000fd5b500190565b6000602082840312156200023c57600080fd5b81516001600160a01b03811681146200025457600080fd5b9392505050565b600181811c908216806200027057607f821691505b6020821081036200029157634e487b7160e01b600052602260045260246000fd5b50919050565b610c8b80620002a76000396000f3fe6080604052600436106101815760003560e01c80636d58c88f116100d1578063c59ee1dc1161008a578063dd62ed3e11610064578063dd62ed3e14610437578063e8b5e51f1461047d578063f851a44014610485578063fb86a404146104a557600080fd5b8063c59ee1dc146103eb578063cc9ba58314610401578063d0e30db01461041757600080fd5b80636d58c88f1461033457806370a082311461035457806395d89b411461038a578063a9059cbb1461039f578063ab0bcc41146103bf578063c10b9358146103d557600080fd5b80633110235a1161013e57806344f387561161011857806344f38756146102b75780634d853ee5146102d15780635ed7ca5b1461030957806363fd9e381461031e57600080fd5b80633110235a14610269578063313ce5671461027f578063378aa7011461029557600080fd5b8063046f7da21461018657806306fdde031461019d578063095ea7b3146101c857806318160ddd146101f857806323b872dd1461021c57806327e235e31461023c575b600080fd5b34801561019257600080fd5b5061019b6104bb565b005b3480156101a957600080fd5b506101b26104e8565b6040516101bf9190610a3f565b60405180910390f35b3480156101d457600080fd5b506101e86101e3366004610aac565b610576565b60405190151581526020016101bf565b34801561020457600080fd5b5061020e60035481565b6040519081526020016101bf565b34801561022857600080fd5b506101e8610237366004610ad8565b610604565b34801561024857600080fd5b5061020e610257366004610b19565b60056020526000908152604090205481565b34801561027557600080fd5b5061020e600f5481565b34801561028b57600080fd5b5061020e60025481565b3480156102a157600080fd5b506102aa61074c565b6040516101bf9190610b53565b3480156102c357600080fd5b506011546102aa9060ff1681565b3480156102dd57600080fd5b506004546102f1906001600160a01b031681565b6040516001600160a01b0390911681526020016101bf565b34801561031557600080fd5b5061019b6107a7565b34801561032a57600080fd5b5061020e60105481565b34801561034057600080fd5b5061019b61034f366004610b19565b6107d2565b34801561036057600080fd5b5061020e61036f366004610b19565b6001600160a01b031660009081526005602052604090205490565b34801561039657600080fd5b506101b261080b565b3480156103ab57600080fd5b506101e86103ba366004610aac565b610818565b3480156103cb57600080fd5b5061020e600c5481565b3480156103e157600080fd5b5061020e600d5481565b3480156103f757600080fd5b5061020e600b5481565b34801561040d57600080fd5b5061020e600e5481565b34801561042357600080fd5b506008546102f1906001600160a01b031681565b34801561044357600080fd5b5061020e610452366004610b7b565b6001600160a01b03918216600090815260066020908152604080832093909416825291909152205490565b6101e86108c2565b34801561049157600080fd5b506007546102f1906001600160a01b031681565b3480156104b157600080fd5b5061020e600a5481565b6007546001600160a01b031633146104d257600080fd5b601180546001919060ff191682805b0217905550565b600080546104f590610bb4565b80601f016020809104026020016040519081016040528092919081815260200182805461052190610bb4565b801561056e5780601f106105435761010080835404028352916020019161056e565b820191906000526020600020905b81548152906001019060200180831161055157829003601f168201915b505050505081565b3360009081526005602052604081205482111561059257600080fd5b6000821161059f57600080fd5b3360008181526006602090815260408083206001600160a01b03881680855290835292819020869055518581529192917f8c5be1e5ebec7d5bd14f71427d1e84f3dd0314c0f7b2291e5b200ac8c7c3b92591015b60405180910390a350600192915050565b6001600160a01b03808416600090815260066020908152604080832093861683529290529081205482111561063857600080fd5b6001600160a01b03841660009081526005602052604090205482111561065d57600080fd5b6001600160a01b03841660009081526005602052604081208054849290610685908490610c04565b90915550506001600160a01b038316600090815260056020526040812080548492906106b2908490610c1b565b90915550506001600160a01b038085166000908152600660209081526040808320938716835292905290812080548492906106ee908490610c04565b92505081905550826001600160a01b0316846001600160a01b03167fddf252ad1be2c89b69c2b068fc378daa952ba7f163c4a11628f55a4df523b3ef8460405161073a91815260200190565b60405180910390a35060019392505050565b6000600360115460ff16600381111561076757610767610b3d565b036107725750600390565b600c544210156107825750600090565b600c5442101580156107965750600d544211155b156107a15750600190565b50600290565b6007546001600160a01b031633146107be57600080fd5b601180546003919060ff19166001836104e1565b6007546001600160a01b031633146107e957600080fd5b600880546001600160a01b0319166001600160a01b0392909216919091179055565b600180546104f590610bb4565b3360009081526005602052604081205482111561083457600080fd5b6001600160a01b0383166000908152600560205260408120805484929061085c908490610c1b565b90915550503360009081526005602052604081208054849290610880908490610c04565b90915550506040518281526001600160a01b0384169033907fddf252ad1be2c89b69c2b068fc378daa952ba7f163c4a11628f55a4df523b3ef906020016105f3565b60006108cc61074c565b6011805460ff191660018360038111156108e8576108e8610b3d565b0217905550600160115460ff16600381111561090657610906610b3d565b1461091057600080fd5b600f5434101580156109245750600f543411155b61092d57600080fd5b34600b600082825461093f9190610c1b565b9091555050600a54600b54111561095557600080fd5b6000600954346109659190610c33565b33600090815260056020526040812080549293508392909190610989908490610c1b565b90915550506004546001600160a01b0316600090815260056020526040812080548392906109b8908490610c04565b90915550506008546040516001600160a01b03909116903480156108fc02916000818181858888f193505050501580156109f6573d6000803e3d6000fd5b50604080513381523460208201529081018290527f4ae4bd7655e0d350876a23cd90c4227b13db560e34435c6a488150a9c844bf5f9060600160405180910390a1600191505090565b600060208083528351808285015260005b81811015610a6c57858101830151858201604001528201610a50565b81811115610a7e576000604083870101525b50601f01601f1916929092016040019392505050565b6001600160a01b0381168114610aa957600080fd5b50565b60008060408385031215610abf57600080fd5b8235610aca81610a94565b946020939093013593505050565b600080600060608486031215610aed57600080fd5b8335610af881610a94565b92506020840135610b0881610a94565b929592945050506040919091013590565b600060208284031215610b2b57600080fd5b8135610b3681610a94565b9392505050565b634e487b7160e01b600052602160045260246000fd5b6020810160048310610b7557634e487b7160e01b600052602160045260246000fd5b91905290565b60008060408385031215610b8e57600080fd5b8235610b9981610a94565b91506020830135610ba981610a94565b809150509250929050565b600181811c90821680610bc857607f821691505b602082108103610be857634e487b7160e01b600052602260045260246000fd5b50919050565b634e487b7160e01b600052601160045260246000fd5b600082821015610c1657610c16610bee565b500390565b60008219821115610c2e57610c2e610bee565b500190565b600082610c5057634e487b7160e01b600052601260045260246000fd5b50049056fea2646970667358221220de03d30d1dc2a2b9466895e30cd9f61a010f61c6abe4c29ede1625d721c8c78564736f6c634300080d0033",
    "sourcePath": "c:/Users/bartu/Desktop/ERC20-Standart-Token-/erc20.sol",
    "compiler": {
        "name": "solc",
        "version": "0.8.13+commit.abaa5c0e"
    },
    "functionHashes": {
        "admin()": "f851a440",
        "allowance(address,address)": "dd62ed3e",
        "approve(address,uint256)": "095ea7b3",
        "balanceOf(address)": "70a08231",
        "balances(address)": "27e235e3",
        "changeDepositAddress(address)": "6d58c88f",
        "decimals()": "313ce567",
        "deposit()": "d0e30db0",
        "founder()": "4d853ee5",
        "getCurrentState()": "378aa701",
        "halt()": "5ed7ca5b",
        "hardCap()": "fb86a404",
        "icoState()": "44f38756",
        "invest()": "e8b5e51f",
        "maxInvest()": "3110235a",
        "minInvest()": "63fd9e38",
        "name()": "06fdde03",
        "raisedAmount()": "c59ee1dc",
        "resume()": "046f7da2",
        "saleEnd()": "c10b9358",
        "saleStart()": "ab0bcc41",
        "symbol()": "95d89b41",
        "tokenTradeStart()": "cc9ba583",
        "totalSupply()": "18160ddd",
        "transfer(address,uint256)": "a9059cbb",
        "transferFrom(address,address,uint256)": "23b872dd"
    },
    "gasEstimates": {
        "creation": {
            "codeDepositCost": "642200",
            "executionCost": "infinite",
            "totalCost": "infinite"
        },
        "external": {
            "admin()": "2425",
            "allowance(address,address)": "infinite",
            "approve(address,uint256)": "26761",
            "balanceOf(address)": "2576",
            "balances(address)": "2647",
            "changeDepositAddress(address)": "26728",
            "decimals()": "2363",
            "deposit()": "2426",
            "founder()": "2404",
            "getCurrentState()": "8890",
            "halt()": "26628",
            "hardCap()": "2405",
            "icoState()": "2396",
            "invest()": "infinite",
            "maxInvest()": "2341",
            "minInvest()": "2406",
            "name()": "infinite",
            "raisedAmount()": "2340",
            "resume()": "26552",
            "saleEnd()": "2428",
            "saleStart()": "2406",
            "symbol()": "infinite",
            "tokenTradeStart()": "2362",
            "totalSupply()": "2385",
            "transfer(address,uint256)": "53268",
            "transferFrom(address,address,uint256)": "infinite"
        }
    }
}